:020000040800F2
:100000009006002065010008B1190008B319000826
:1000100000000000000000000000000000000000E0
:10002000000000000000000000000000B7190008F8
:100030000000000000000000B9190008BB1900080A
:1000400077010008770100087701000877010008B0
:1000500077010008770100087701000877010008A0
:100060007701000877010008770100087701000890
:1000700077010008BD190008770100087701000822
:1000800077010008770100080000000077010008F0
:100090007701000877010008770100087701000860
:1000A0007701000877010008770100087701000850
:1000B0007701000800000000770100080000000040
:1000C00000F002F800F03EF80CA030C80838241800
:1000D0002D18A246671EAB4654465D46AC4201D180
:1000E00000F030F87E460F3E0FCCB6460126334274
:1000F00000D0FB1AA246AB4633431847BC1A000097
:10010000DC1A0000103A02D378C878C1FAD8520736
:1001100001D330C830C101D504680C6070470000BD
:100120000023002400250026103A01D378C1FBD813
:10013000520700D330C100D50B6070471FB51FBDFB
:1001400010B510BD01F006FD1146FFF7F7FF01F0F5
:100150000FFC01F01EFD03B4FFF7F2FF03BC01F03A
:1001600023FD00000748804707480047FEE7FEE7F9
:10017000FEE7FEE7FEE7FEE704480549054A064BB1
:1001800070470000BF170008C10000089000002061
:1001900090060020900200209002002010B5044636
:1001A0000920C006844209D10121480400F06DFCF9
:1001B00000210120400400F068FC3CE074488442C7
:1001C00008D10121000200F060FC0021200200F0B3
:1001D0005CFC30E06F48844208D10121000200F04D
:1001E00054FC0021200200F050FC24E06A488442C4
:1001F00009D10121080500F048FC0021012000057B
:1002000000F043FC17E06548844208D10121400218
:1002100000F03BFC0021600200F037FC0BE060487E
:10022000844208D10121880500F02FFC0021012023
:10023000800500F02AFC10BDF0B50A46002100231D
:10024000002400BF3DE001258D402B4615681D4070
:100250002C469C4234D11579012D02D01579022DFE
:1002600016D185684F000326BE40B5438560557999
:100270004E00B540866835438560858801268E40EE
:10028000B5438580858896798E40B6B235438580A2
:1002900005684F000326BE40B543056015794E0042
:1002A000B540066835430560C5684F000326BE406B
:1002B000B543C560D5794E00B540C6683543C560C5
:1002C000491C1029BFD3F0BD3649016000210171DE
:1002D0000121417100218171C171704708B501226E
:1002E00012040092009A0A430092009AC261C1610E
:1002F000009AC261C2690092C269009208BD0246BA
:100300000020138A0B40002B01D0012000E00020C8
:1003100070470146088A704702460020938A0B40C6
:10032000002B01D0012000E0002070470146888AA0
:1003300070478161704701857047002A01D0816153
:1003400000E00185704781827047F0B500230024EA
:100350004D07EE0E1546B5402B46CD10AE000546B6
:100360002035AD594E07F70E0F26BE40B543CE10CF
:10037000B60007462037BD51CD10AE003D46AD5901
:100380001D432C46CD10AD003E467451F0BD00001B
:100390000004004800080048000C00480010004815
:1003A00000140048FFFF000000218278002A27D0B7
:1003B000274A03231B02D21803789B109B00D158B5
:1003C00002789207D30EFF229A400B4693431946B8
:1003D00042789207120E03789B07DB0E9A40114376
:1003E0001B4A03231B02D21803789B109B00D15099
:1003F0000278D306DB0E01229A40154B1A6007E003
:100400000278D306DB0E01229A40114B80331A602A
:100410007047002905D00F4A126902430D4B1A613B
:1004200004E00C4A126982430A4B1A61704704289F
:1004300006D10949096904221143074A116105E0FF
:100440000549096904229143034A1161704700007C
:1004500000E100E000ED00E000E000E0FE480068A0
:1004600001210843FC49086008464068FB490840F0
:10047000F949486008460068F9490840F6490860AB
:1004800008460068012189048843F349086008464A
:1004900040683F2109048843EF4948600846C06A24
:1004A00000090001C8620846006BFF2154318843EF
:1004B000E94908630846406B400840004863002053
:1004C000886070470021E44A917011468870704737
:1004D00010B502460021002300205111002902D14D
:1004E000DD4C23680BE0012902D1DB4C236A06E0D6
:1004F000022902D1D84C636A01E0D74C636BD10664
:10050000C90E01248C401C40002C01D0012000E0C9
:10051000002010BD38B5002000900024002500BF49
:100520001120FFF7D5FF05460098401C00900521DB
:1005300009030098884201D0002DF1D01120FFF767
:10054000C7FF002801D0012400E00024204638BD68
:1005500001460020C04A1068F82302469A4310461C
:10056000CA001043BC4A10607047002806D0BA4940
:10057000096801221143B84A116005E0B6490968CB
:1005800049084900B44A1160704701460020B24A48
:10059000506BF82302469A431046CA001043AE4AF5
:1005A00050637047002806D0AB49496B01221143C4
:1005B000A94A516305E0A849496B49084900A64A80
:1005C00051637047002806D0A349496B0422914328
:1005D000A14A516305E0A049496B042211439E4A98
:1005E000516370479C49096A490849009A4A116257
:1005F0001146096A04229143974A11621146096A19
:100600000143116270479449096A18229143924A42
:1006100011621146096A014311627047002806D031
:100620008D49496A012211438B4A516205E08A498A
:10063000496A49084900884A51627047864A5268A7
:100640007B23DB039A43844B5A601A465268034665
:100650000B431A43804B5A607047002807D07E49ED
:1006600009680122120611437B4A116006E07A49AB
:100670000968012212069143774A116070470028E9
:1006800007D07549496B012212041143724A516324
:1006900006E07149496B0122120491436E4A51638D
:1006A0007047014600206C4AD06A000900010246EA
:1006B0000A431046684AD0627047002807D066494E
:1006C00009680122D2041143634A116006E06249BD
:1006D00009680122D20491435F4A116070470246C3
:1006E00000205D4B58680002000A13060B431843B4
:1006F000594B5860704701460020574A506880089F
:10070000800002460A431046534A506070475248E0
:1007100040680C2108407047014600204E4A50684E
:10072000F02302469A43104602460A4310464A4ABC
:100730005060704701460020474A506807231B025B
:1007400002469A43104602460A431046424A506007
:100750007047414949680122920391433E4A5160E2
:100760001146496882B211433B4A51601146096BF8
:1007700092159143384A11631146096B020C1143DB
:10078000354A116370473449096B40229143324A1C
:1007900011631146096B0143116370472E49096BC0
:1007A000102291432C4A11631146096B01431163D6
:1007B00070470021010F012906D1274A126B9208C8
:1007C0009200254B1A6306E0234A126B03231B0495
:1007D0009A43214B1A63204A126B02431E4B1A6341
:1007E00070471D49096B802291431B4A11631146D2
:1007F000096B014311637047FEB5044600250026CE
:1008000000200290019000900027134840680C21BE
:1008100008400546002D06D0042D07D0082D08D02D
:100820000C2D37D133E00F48206036E00D482060B2
:1008300033E0094840680F2189040840064606480D
:1008400040680321C90308400290B00C861C02983E
:1008500000280ED1044809E0001002400CB8FF083F
:10086000FFFFF6FE00127A0000093D0037464743BD
:100870000BE0AD48C06A0007000F401C0190AB4878
:10088000019901F0B7F870430746276005E0A848D2
:10089000206002E0A548206000BF00BFA248406879
:1008A000F021084005462D09A248405D00902168CE
:1008B0000098C14061609C484068072109020840D7
:1008C00005462D0A9B48405D009061680098C14034
:1008D000A1609548006BFF2101310840884202D099
:1008E0009548E0600DE09048406801218903084088
:1008F000884203D0A0684008E06002E0A068800859
:10090000E0608948006B40210840402802D08B48B5
:10091000206102E00120C00320618348006B1021A8
:100920000840102802D08148606101E020686061C1
:100930007D48006B8007800F002802D1A068A0616D
:1009400019E07948006B8007800F012802D12068E8
:10095000A06110E07448006B8007800F022802D16C
:100960008003A06107E07048006B8007800F0328B8
:1009700001D16E48A0616C48006B03210904084056
:10098000002802D1A068E06120E06748006B0321E5
:100990000904084001210904884202D12068E0616D
:1009A00014E06148006B0321090408400121490457
:1009B000884202D18010E06108E05B48006B0321AF
:1009C00009040840884201D15848E0615648006B4C
:1009D00080210840802802D05548206200E027622C
:1009E000FEBD5149096A01434F4A11627047002810
:1009F00007D04D49096A0122D20311434A4A1162C4
:100A000006E04949096A0122D2039143464A11622C
:100A10007047002807D04449096A01221204114393
:100A2000414A116206E04049096A012212049143D9
:100A30003D4A11627047002905D03B4A5269024382
:100A4000394B5A6104E0384A52698243364B5A6145
:100A50007047002905D0344A92690243324B9A61AB
:100A600004E0314A926982432F4B9A617047002912
:100A700005D02D4AD26902432B4BDA6104E02A4AA1
:100A8000D2698243284BDA617047002905D0264A93
:100A9000926A0243244B9A6204E0234A926A824398
:100AA000214B9A627047002905D01F4AD268024341
:100AB0001D4BDA6004E01C4AD26882431A4BDA60AC
:100AC0007047002905D0184A12690243164B1A6173
:100AD00004E0154A12698243134B1A6170470029DA
:100AE00005D0114A527A02430F4B5A7204E00E4A63
:100AF000527A82430C4B5A7270470B48406A01216C
:100B00000906084308494862704701460020064A22
:100B100092680A40002A01D0012000E000207047BE
:100B200001498872704700000010024000127A00EC
:100B3000006CDC0200000020809FD50012800000C5
:100B400010B50446F748844208D10121C014FFF7CC
:100B5000AAFF0021E014FFF7A6FF62E00120800752
:100B6000844208D101210846FFF7ABFF0021012094
:100B7000FFF7A7FF55E0EC48844208D1012102208D
:100B8000FFF79FFF00210220FFF79BFF49E0E748A6
:100B9000844208D101211020FFF793FF002110208B
:100BA000FFF78FFF3DE0E248844208D10121202079
:100BB000FFF787FF00212020FFF783FF31E0DD48AA
:100BC000844208D101218015FFF77BFF0021A01589
:100BD000FFF777FF25E0D848844209D101210804B6
:100BE000FFF761FF002101200004FFF75CFF18E020
:100BF000D248844209D101214804FFF754FF002163
:100C000001204004FFF74FFF0BE0CD48844208D19C
:100C100001218804FFF747FF002101208004FFF72E
:100C200042FF10BD00220288BE4B984206D001232D
:100C30009B07984202D0BC4B984203D1C14B1A404B
:100C40004B881A43B94B984203D0BF4B1A400B89CB
:100C50001A4302804B68C3620B880385B14B9842EC
:100C600008D0B54B984205D0B44B984202D0B44B53
:100C7000984201D18B7A0386012383827047002139
:100C8000C943416000210180018141808172704728
:100C90000185828270470A4600210188A94B1940CC
:100CA0000B46134319460180704741627047C16289
:100CB00070470146486A70470146088D7047002911
:100CC00004D0028802231A43028004E002889D4B6C
:100CD0006E331A4002807047002904D00288042332
:100CE0001A43028004E00288964B6C331A4002805B
:100CF0007047002904D0028880231A43028004E050
:100D00000288904B103B1A400280704702888D4B3E
:100D100068331A40028002880A43028070470288C2
:100D2000894B1A40028002880A43028070470029DA
:100D300004D0028801231A43028004E00288814B18
:100D40006F331A40028070470A884B881A438B8899
:100D50001A43CB881A430B891A434B891A438B8950
:100D60001A4344231A527047002101804180818038
:100D7000C1800181418181817047002907D04422CF
:100D8000125A0123DB031A4344231A5205E044227A
:100D9000125A53045B0C44221352704770B500245E
:100DA00000220023058C674E6F3635400584028C87
:100DB0008388048B634D2C40B51E2C400D882C433A
:100DC000751E2A408D892A434D882A43554DA842D5
:100DD00008D0594DA84205D0584DA84202D0584DD0
:100DE000A84212D1574D68352A40CD892A43554D26
:100DF0006C352A408D882A43524D903D2B40534DEF
:100E00002B400D8A2B434D8A2B43838004838D68AE
:100E10004563028470BD70B5002400220023058C58
:100E2000484E603635400584028C8388048B484DDB
:100E30002C40454D2C400D782D062D0C2C43414D5A
:100E400050352A408D892D052D0C2A434D882D05BE
:100E50002D0C2A43334DA84202D0374DA8421CD155
:100E60003C4D2B400D8AAD042D0C2B432D4DA8423B
:100E700013D1344D103D2A40CD892D052D0C2A4328
:100E8000304D30352A408D882D052D0C2A43324DAA
:100E90002B404D8AAD042D0C2B43838004838D6839
:100EA0008563028470BD70B5002400220023058C88
:100EB000244E903E35400584028C8388848B214DDE
:100EC0002C40204D6D352C400D882C431F4D2A4061
:100ED0000D7B2D062D0C2A438D782D062D0C2A43D3
:100EE000104DA84217D11C4D2A408D7B2D062D0C8C
:100EF0002A43184D2A400D792D062D0C2A43174DF3
:100F00002B40174D2B400D8A2D052D0C2B434D8A60
:100F10002D052D0C2B43838084838D68C56302844B
:100F200070BD0000002C0140000400400010004093
:100F300000140040002000400040014000440140F7
:100F4000004801408FFF0000FFFC0000FFFD000093
:100F5000FF8F0000FFFB0000FFF70000FFEF000025
:100F6000FFDF000070B5002200230024058CF94E3D
:100F700035400584038C8488828BF74D2A40F74DD9
:100F80002A400D782D062D0C2A43F54D2B400D7B64
:100F90002D072D0C2B438D782D072D0C2B43F14D58
:100FA000A84205D1F04D2C400D8AAD052D0C2C43E7
:100FB000848082838D680564038470BD0021018074
:100FC0004180818081608181C1810182418270473D
:100FD00070B50346002000241846183001258D40C6
:100FE000ACB21D8CA5431D84002901D0082909D16C
:100FF0004D10281805687026B5430560056815432F
:1010000005600DE00D1F2D046D0C281805680726DE
:101010003603B543056005681606360C3543056092
:1010200070BD4163704781637047C163704701645D
:1010300070470A460021018BCC4B19400B461343E5
:101040001946018370470A460021018BC24B1940A3
:1010500013061B0C1943018370470A460021818B3C
:10106000C24B19400B4613431946818370470A4609
:101070000021818BB84B194013061B0C1943818347
:101080007047002904D0828801231A43828004E03B
:101090008288B64B6F331A40828070470A4600211F
:1010A000018BB24B683319400B4613431946018339
:1010B00070470A460021018BAD4B194013061B0CEB
:1010C0001943018370470A460021818BA74B68337F
:1010D00019400B4613431946818370470A46002185
:1010E000818BA34B194013061B0C19438183704756
:1010F0000A460021018B9D4B6C3319400B4613436C
:101100001946018370470A460021018B994B19400B
:1011100013061B0C1943018370470A460021818B7B
:10112000924B6C3319400B46134319468183704729
:101130000A460021818B8F4B194013061B0C194363
:10114000818370470A460021018B884B103B194070
:101150000B4613431946018370470A460021018B51
:101160004904490C13061B0C1943018370470A46B6
:101170000021818B7D4B103B19400B4613431946D0
:10118000818370470A460021818B4904490C13066C
:101190001B0C1943818370470A460021018C734B55
:1011A0006E3319400B4613431946018470470A46B3
:1011B0000021018C6D4B683319400B4613431946CF
:1011C000018470470A460021018C684B5033194056
:1011D00013051B0C1943018470470A460021018C3A
:1011E000624B103B194013051B0C194301847047D7
:1011F0000A460021018C604B194013061B0C194351
:10120000018470470A460021018C594B194013068E
:101210001B0C1943018470470A460021018C504B76
:10122000194013071B0C19430184704702894F4B67
:1012300068331A40028102890A430281704730B53F
:10124000002301248C40A3B2048C9C430484048CAE
:1012500015468D40ADB22C43048430BD30B500231B
:1012600004248C40A3B2048C9C430484048C154653
:101270008D40ADB22C43048430BD002904D0828857
:1012800004231A43828004E08288384B6C331A406E
:1012900082807047828B394B1A408283828B0B0687
:1012A0001B0C1A4382837047F8B50C4600210025B9
:1012B00000260096068C274F3E400684818B058CC5
:1012C0002607360C00962E4E31401606360C31435A
:1012D0001E07360C31432B4E354001273F03009E3D
:1012E0003E43354381830584F8BD828B1F4B6433B5
:1012F0001A408283828B0A4382837047F8B50C467A
:101300000021002500260096068C184F903F3E4095
:101310000684818B058C2606360C0096134E833E80
:1013200031401E05360C16433143174E3540FF271A
:101330000137009E3E43354381830584F8BD028B0F
:101340000E4B1A400283028B0B061B0C1A430283BE
:1013500070470000FFEF0000FF8F0000FFFC00005F
:10136000FFDF0000002C0140FFBF00008FFF0000E6
:10137000FFF70000FFFB0000FFFD0000FFF300008F
:10138000FF0C0000FF5F0000FFF50000F8B50C4601
:101390000021002500260096068CE64F3E4006847C
:1013A000018B058C2605360C0096E34E31401E0756
:1013B000360C31431606360C3143DE4E903E354036
:1013C0001027009E3E43354301830584F8BD028B00
:1013D000D84B1B1D1A400283028B0A4302837047BD
:1013E000F0B50C4600210025068CD24F0F373E4049
:1013F0000684018B058CCF4EE33E31401E05360C32
:1014000016433143CB4EB61D3540012626433543A6
:1014100001830584F0BD70B505460C462088002880
:101420000AD12389A28861882846FFF7D9FFE1887D
:101430002846FFF7CCFF25E0208804280AD123891D
:10144000A28861882846FFF7A1FFE1882846FFF7B8
:1014500076FF17E0208808280AD12389A2886188AE
:101460002846FFF74BFFE1882846FFF73EFF09E0DB
:101470002389A28861882846FFF716FFE18828465D
:10148000FFF708FF70BD00210180418001218180AC
:101490000021C18001817047F8B505460C46002641
:1014A00001276088002801D1022600E00026A088DC
:1014B000012801D1022700E001272088002814D14B
:1014C0002389A28861882846FFF78AFFE188284699
:1014D000FFF77DFF23893A4631462846FFF756FF3E
:1014E000E1882846FFF72BFF13E02389A288618853
:1014F0002846FFF74BFFE1882846FFF720FF2389A6
:101500003A4631462846FFF76BFFE1882846FFF749
:101510005EFFF8BD0146486B70470146886B704717
:101520000146C86B70470146086C7047002A03D01B
:1015300083890B43838102E083898B4383817047D6
:101540008182704702460020138A0B40002B01D095
:10155000012000E000207047CA430282704730B586
:101560000246002000230024158A0D402B46958951
:101570000D402C46002B03D0002C01D0012000E0B0
:10158000002030BDCA430282704710B50B4613439A
:101590004824235210BD002A03D083890B43838142
:1015A00002E083898B4383817047002904D08288BD
:1015B00008231A43828004E082885E4B08331A4075
:1015C0008280704701895B4A09321140018170476E
:1015D0000A4600210189574B603B19400B461343D3
:1015E00019460181704730B504460D46294620460C
:1015F000FFF7EEFF208907210843208130BDF8B5B1
:1016000004460D4616461F46602D06D13B46012274
:1016100031462046FFF7BAFE05E03B46012231463F
:101620002046FFF7DDFE29462046FFF7D1FF20893F
:10163000072108432081F8BD30B50C4600210189FF
:10164000C9B21D062D0C154325432943018130BD28
:10165000FFB505460E46174600243A463146284651
:10166000039BFFF7E9FF2C8932480930044007202B
:101670000443304860380440702004432C81FFBD8F
:10168000F0B504460D4616461F463B4632462946EF
:101690002046FFF7D1FF20890121890308432081DB
:1016A000F0BD8288234B603B1A40828082880A43C7
:1016B0008280704702891F4B09331A4002810289D8
:1016C0000A430281704702891A4B703B1A4002811B
:1016D00002890A4302817047F0B50C4600210025BB
:1016E00000260189058B068C124F093739400F46B9
:1016F00027433946114F3D40FF2702373D430D4FE9
:101700009A3F3E401F053F0C17433E43018105832E
:101710000684F0BD002904D0828880231A43828089
:1017200004E08288034B703B1A408280704750224D
:1017300011527047EFFF0000FF0C0000FCFC00009E
:101740000CB500200190009011205F4908605F48AF
:1017500040685E49486008464068486008464068FE
:101760007F21C903884359494860084640680521DC
:10177000C904084355494860084600680121090624
:1017800008435249086000BF5048006801214906DB
:1017900008400028F8D04D484068800880004B4938
:1017A000486008464068022108434849486000BF35
:1017B000464840680C2108400828F9D10CBD10B5F6
:1017C00042480068012108434049086008464068D3
:1017D0003F4908403D494860084600683D49084087
:1017E0003A4908600846006801218904884337495E
:1017F0000860084640683F2109048843334948602F
:101800000846C06A00090001C8620846006BFF2153
:10181000543188432D4908630846406B4008400016
:10182000486300208860FFF78BFF10BDF8B50025E6
:10183000002400260027254840680C210840054662
:10184000002D04D0042D06D0082D2AD107E022480F
:101850002249086029E020482049086025E01B480B
:1018600040680F2189040840044618484068032155
:10187000C90308400646A00C841C002E04D1184859
:101880006043164908600BE01048C06A0007000F6B
:10189000471C3946104800F0ADF860430F49086016
:1018A00003E00D480D49086000BF00BF07484068CD
:1018B000F021084000090B490D5C08480068E84029
:1018C00006490860F8BD00000020024000100240F8
:1018D0000CB8FFF8FFFFF6FE00127A00100000209F
:1018E00000093D00140000201CB501218804FFF709
:1018F000A2F8102000900121684601710021817139
:101900000121C1710321417169460648FEF794FC2B
:101910001CBD012805D10349898A10225140014A82
:1019200091827047000400481FB50121C802FFF7EB
:1019300090F82F21684681800021C18019480290CB
:1019400068468181817301A91748FFF76BF90D2162
:10195000684601700021417001218170FEF724FD6D
:10196000012211461048FFF7E1FD1FBD002070471E
:1019700000BFFFF7B9FFFFF7D7FF01210A48FFF7C4
:10198000D6F900BFFEE7002108E0002201E0531C69
:101990009AB2064B9A42FADB4B1C99B28142F4DBB5
:1019A00070470000E7030000002C0140B012000067
:1019B000704700BFFEE770477047704710B50121C0
:1019C0000A48FFF7DFFD0A480068401C0849086024
:1019D00008460068FF219131884205DB0020044958
:1019E00008600120FFF795FF10BD0000002C0140AA
:1019F0002C000020002203098B422CD3030A8B42C7
:101A000011D300239C464EE003460B433CD40022F6
:101A100043088B4231D303098B421CD3030A8B4208
:101A200001D394463FE0C3098B4201D3CB01C01AD6
:101A3000524183098B4201D38B01C01A52414309A1
:101A40008B4201D34B01C01A524103098B4201D38F
:101A50000B01C01A5241C3088B4201D3CB00C01AFC
:101A6000524183088B4201D38B00C01A5241430874
:101A70008B4201D34B00C01A5241411A00D2014699
:101A80005241104670475DE0CA0F00D04942031032
:101A900000D34042534000229C4603098B422DD381
:101AA000030A8B4212D3FC22890112BA030A8B4229
:101AB0000CD3890192118B4208D3890192118B4278
:101AC00004D389013AD0921100E08909C3098B42FD
:101AD00001D3CB01C01A524183098B4201D38B0140
:101AE000C01A524143098B4201D34B01C01A5241E3
:101AF00003098B4201D30B01C01A5241C3088B4228
:101B000001D3CB00C01A524183088B4201D38B0012
:101B1000C01A5241D9D243088B4201D34B00C01A9C
:101B20005241411A00D20146634652415B101046B1
:101B300001D34042002B00D54942704763465B10F9
:101B400000D3404201B50020C046C04602BD7047E8
:101B500070477047754600F023F8AE4605006946A9
:101B60005346C008C000854618B020B5FEF704FBF8
:101B700060BC00274908B6460026C0C5C0C5C0C520
:101B8000C0C5C0C5C0C5C0C5C0C5403D49008D4623
:101B900070470446C046C0462046FEF7DCFA000007
:101BA000004870473000002001491820ABBEFEE716
:101BB0002600020070470000D81B0008000000202B
:101BC0003000000004010008081C0008300000205C
:101BD000600600002001000800000000010203046C
:101BE0000102030406070809006CDC020000000083
:101BF00000000000010203040607080900000000BD
:081C00000000000000000000DC
:04000005080000C12E
:00000001FF
