:020000040800F2
:1000000000040020D9030008E9030008EB030008FE
:1000100000000000000000000000000000000000E0
:10002000000000000000000000000000EF030008D6
:100030000000000000000000F1030008F3030008C6
:10004000D7020008B7030008C30300080104000832
:100050000304000805040008070400080904000858
:100060000B0400080D0400080F0400081104000828
:1000700013040008150400081704000819040008F8
:100080001B0400081D040008000000001F040008F5
:1000900021040008230400082504000827040008A0
:1000A000290400082B0400082D0400082F04000870
:1000B00031040008000000003304000800000000C4
:1000C00080B54B4800680121014349480160494817
:1000D0000068494901404748016045480068474970
:1000E000014043480160424800684549014040489A
:1000F000016040480068434901403E480160424871
:1001000000680F2188434049086040480068404922
:1001100001403E4801603F480068012188433D4955
:10012000086000203C49086000F001F801BDC0B53E
:1001300000200190002000902D4800688021490295
:1001400001432B4801602A48006880218902084049
:1001500000900198401C01900098002804D101985B
:10016000A021C9018842EED121480068800302D550
:100170000120009001E0002000900098012834D177
:100180001120264908601B4800681A490860194870
:10019000006818490860174800682149014015485F
:1001A0000160144800688821490301431148016037
:1001B0000F4800688021490401430D4801600C4844
:1001C00000688001FBD50B4800680321884309497A
:1001D000086008480068022101430648016005489C
:1001E00000680C2101400829F9D103BD000000007E
:1001F00000100240041002400CB8FFF8FFFFF6FEAA
:10020000FFFFFBFFFFFFC0FF2C1002403010024039
:10021000ACFEFFFF341002400810024000200240F4
:10022000FF7FC0FF70B5002200230024002246E0BB
:10023000012393400C681C409C423FD10B79012B59
:1002400002D00B79022B19D18368032415000226F2
:100250007543AC40A343836083684C791500022644
:100260007543AC401C438460838801249440A343BD
:10027000838083888C7994401C43848003680324A2
:10028000150002267543AC40A343036003680C7954
:10029000150002267543AC401C430460C368032468
:1002A000150002267543AC40A343C360C368CC79F4
:1002B000150002267543AC401C43C460521C102A32
:1002C000B6D370BD00B5D2B2002A02D089B2816126
:1002D00000E0018500BDFEE780B500F029F80122AD
:1002E000802189011048FFF7EDFFFA20800000F01F
:1002F0000BF80022802189010B48FFF7E3FFFA2069
:10030000800000F001F8EAE700B5002105E0521C8A
:1003100092B2064B9A42FADB491C89B280B2814202
:1003200001D20022F4E700BD00080048B01200002E
:1003300000B583B001218020000300F017F8802071
:10034000800100900120694608710020694688718B
:1003500001206946C8710320694648716946024810
:10036000FFF760FF07BD00000008004800B5C9B2F4
:10037000002905D00549096808430449086004E0DC
:100380000249096881430148016000BD1410024020
:1003900000F00BF8002801D0C046C0460020C0463F
:1003A000C046FFF799FF00F002F80120704780B5C2
:1003B00000F002F801BDFEE70746384600F002F8FB
:1003C000FBE7FEE780B5C046C046024A1100182090
:1003D000ABBEFBE72600020001488047014800470A
:1003E000C1000008F5030008704700B5FEE770473C
:1003F00070477047C046C046C046C046FFF7C8FFBA
:10040000FEE7FEE7FEE7FEE7FEE7FEE7FEE7FEE7C4
:10041000FEE7FEE7FEE7FEE7FEE7FEE7FEE7FEE7B4
:10042000FEE7FEE7FEE7FEE7FEE7FEE7FEE7FEE7A4
:04043000FEE7FEE7FE
:04000005080003F5F7
:00000001FF
